:020000040800F2
:1000000000200020F9030008410400084104000812
:1000100000000000000000000000000000000000E0
:100020000000000000000000000000004104000883
:100030000000000000000000410400084104000826
:10004000410400084104000841040008410400087C
:10005000410400084104000841040008410400086C
:10006000410400084104000841040008410400085C
:10007000410400084104000841040008410400084C
:10008000410400087103000800000000410400085A
:10009000410400084104000841040008410400082C
:1000A000410400084104000841040008410400081C
:1000B00041040008000000004104000800000000A6
:0400C0005FF808F1EC
:1000C40080B586B000AF9B4B9A4A52698021C90221
:1000D4000A435A61984B994A1A60964B954A526959
:1000E400802189020A435A619023DB055522DA6094
:1000F400904B904AD26910210A43DA61904B914A9D
:100104001A858F4B904A1268DA628D4B8C4A928919
:1001140092B201210A4392B29A81894B884A128889
:1001240092B201210A4392B21A80884B874A12681C
:10013400802189020A431A609023DB059022D205AC
:100144001268C02109010A431A609023DB0590223A
:10015400D2051268C02189010A431A60754B754A99
:100164009269802189000A439A61794B784A92689E
:10017400802109060A439A60C046754B9B68002B90
:10018400FBDB734B724A926801210A439A60C046B2
:100194006F4B1A6801231340FAD09023DB051B8AA6
:1001A4009BB2D9B23B1C133301220A401A7090232C
:1001B400DB051B8A9BB2D9B23B1C123302220A40D4
:1001C4001A7000237B6102E07B6901337B617A69E9
:1001D400604B9A42F8D99023DB051B8A9BB2D9B2B3
:1001E4003B1C0D3301220A401A703B1C13331B784D
:1001F400002B0FD03B1C0D331B78002B0AD1504B26
:100204004F4A928A92B201210A4392B29A82524B85
:1002140000221A703B1C13333A1C0D3212781A70E8
:100224009023DB051B8A9BB2D9B23B1C0C33022200
:100234000A401A703B1C12331B78002B07D03B1C5E
:100244000C331B78002B02D13F4B444A1A603B1CF1
:1002540012333A1C0C3212781A709023DB051B8A75
:100264009BB2D9B23B1C0B3304220A401A703B1CCC
:1002740011331B78002B07D03B1C0B331B78002B4E
:1002840002D1314B364A1A603B1C11333A1C0B32F3
:1002940012781A709023DB051B8A9BB21A1C082360
:1002A400134042D12A4B20229A62294B284A926851
:1002B40004210A439A60C046254B1A68042313405C
:1002C400FAD0234B1A6C3B1C08331A80204B402273
:1002D4009A621F4B1E4A926804210A439A60C046E0
:1002E4001B4B1A6804231340FAD0194B1A6CBB1D1C
:1002F4001A803A1C0832BB1D12881B889A4206D900
:100304003B1C0E333A1C083212881A8004E03B1C52
:100314000E33BA1D12881A803B1C0E331B88114AF7
:10032400D31A1A1C104B1A604BE7074B1A680E4B72
:100334001A6046E7001002400004004855550000CA
:10034400001000403F0700000000002000E100E032
:10035400002401400B300000080000206B0800005E
:100364005E030000D51000000400002080B582B0B8
:1003740000AF164B154A128A92B201218A4392B2F7
:100384001A823A1C124B111C1A1C0823081C111C3B
:100394001A1C00F055F80F4B0F4A1278391C8A5C6E
:1003A4009A820D4B1B780133DAB20B4B1A700A4B4D
:1003B4001B78072B02D9084B00221A70034B074AFB
:1003C4001268DA62BD4602B080BDC046001000402B
:1003D400C8040008000400480800002004000020AD
:1003E400D0040008000000200800002008000020BD
:1003F4000C0000200B488546002103E00A4B5B58A3
:100404004350043109480A4B42189A42F6D3094A28
:1004140002E0002313600432074B9A42F9D3FFF73A
:100424004FFEFEE700200020D0040008000000205A
:1004340008000020080000200C000020FEE7000057
:10044400F0B50F2A35D9031C0B439C0735D1161C74
:10045400103E36093501451910350C1C031C27685C
:100464001F6067685F60A7689F60E7681034DF609B
:100474001033AB42F3D1731C1B01C518C9180F23E9
:100484001340032B1BD91C1FA4080134A400002310
:10049400CE58EE500433A342FAD1ED18C918032301
:1004A4001A4005D00023CC5CEC5401339342FAD1BA
:1004B400F0BD051C002AF5D1FAE7051CF2E71A1C69
:0C04C400F8E7C046010204088848281828
:0804D000D5100000D51000005A
:04000005080003F9F3
:00000001FF
